:020000040800F2
:10000000280C00204D020008C5120008FD0E000853
:10001000A51100085F040008BB14000800000000E0
:10002000000000000000000000000000C9120008ED
:100030006104000800000000C7120008CB1200088D
:1000400067020008670200086702000867020008EC
:1000500067020008670200086702000867020008DC
:1000600067020008670200086702000867020008CC
:1000700067020008670200086702000867020008BC
:1000800067020008670200086702000867020008AC
:10009000670200086702000867020008670200089C
:1000A000670200086702000867020008670200088C
:1000B000670200086702000867020008670200087C
:1000C000670200086702000867020008670200086C
:1000D000670200086702000867020008670200085C
:1000E000670200086702000867020008670200084C
:1000F000670200086702000867020008670200083C
:10010000670200086702000867020008670200082B
:10011000670200086702000867020008670200081B
:10012000670200086702000867020008670200080B
:1001300067020008670200086702000867020008FB
:1001400067020008670200086702000867020008EB
:1001500067020008670200086702000867020008DB
:1001600067020008670200086702000867020008CB
:10017000670200086702000867020008000000002C
:1001800067020008670200086702000867020008AB
:10019000670200086702000867020008670200089B
:1001A00067020008670200086702000800F002F812
:1001B00000F03CF80AA090E8000C82448344AAF1C5
:1001C0000107DA4501D100F031F8AFF2090EBAE8C3
:1001D0000F0013F0010F18BFFB1A43F0010318477B
:1001E000C8320000E8320000103A24BF78C878C155
:1001F000FAD8520724BF30C830C144BF04680C602D
:10020000704700000023002400250026103A28BF74
:1002100078C1FBD8520728BF30C148BF0B60704778
:100220001FB503F04AF81FBD10B510BD00F0E2F88D
:100230001146FFF7F5FF02F00BFA00F000F903B4E6
:10024000FFF7F2FF03BC00F003F900000948804704
:1002500009480047FEE7FEE7FEE7FEE7FEE7FEE7A8
:10026000FEE7FEE7FEE7FEE704480549054A064BC0
:100270007047000069130008AD010008280600203F
:10028000280C0020280800202808002053EA020C2F
:1002900000F069802DE9F04B4FF00006002B1FBFE6
:1002A000B3FA83F503FA05F424FA05F65E4012BFAB
:1002B0001643B2FA82F502FA05F4C5F120051EBF15
:1002C00022FA05FC44EA0C04203556EA044C4FEAB5
:1002D000144418BF641C4FF000084FF0000990420E
:1002E00071EB030C39D3002919BFB1FA81F701FA78
:1002F00007F6B0FA80F700FA07F6C7F120071EBF2D
:1003000020FA07FC46EA0C062037B6FBF4FCA7EB04
:100310000507103F07F01F0BCBF120060CFA0BFB73
:100320002CFA06F644BFB3460026202FA4BF5E4633
:100330004FF0000B5BEA060C08BF4FF0010B19EB06
:100340000B09ABFB027C48EB0608C01B06FB02CC8A
:100350000BFB03CC71EB0C01C1E70B460246414697
:100360004846BDE8F08B13B54FF000004FF0000198
:10037000AFF30080BDE81C4070474FF0000200B5AD
:10038000134694469646203922BFA0E80C50A0E8B8
:100390000C50B1F12001BFF4F7AF090728BFA0E866
:1003A0000C5048BF0CC05DF804EB890028BF40F832
:1003B000042B08BF704748BF20F8022B11F0804F74
:1003C00018BF00F8012B704770477047704710B591
:1003D00000F008F8006810BD10B5044600F002F8FF
:1003E000046010BD004870470C01002000487047B1
:1003F0000C0100207546FFF7F9FFAE46050069467F
:10040000534620F00700854618B020B5FFF72CFFB3
:10041000BDE820404FF000064FF000074FF0000805
:100420004FF0000B21F00701AC46ACE8C009ACE886
:10043000C009ACE8C009ACE8C0098D46704710B5EA
:100440000446AFF300802046BDE81040FFF7F7BE3A
:1004500001491820ABBEFEE7260002007047FEE708
:100460007047A8214843800800BF401EFCD2704757
:1004700072B6FEE72DE9F84FDFF8F8A1002201245B
:1004800003254FF00F090AF1040BAAF1040E00BF77
:100490000B6804FA02F63340B34270D10F7907F0CB
:1004A0000307012F01D0022F16D187684FEA4208B7
:1004B00005FA08FC27EA0C07D1F80CC00CFA08FC76
:1004C0004CEA070CC0F808C04768B7430E79C6F37A
:1004D000001696403E4346600E79F643B6070AD0B2
:1004E000C7684FEA420C05FA0CF6B7438E6806FA65
:1004F0000CF63E43C6600E7906F00306022E10D1BC
:10050000D60800EB8608D8F8206057074FEAD76C6A
:1005100009FA0CF7BE430F6907FA0CF73743C8F81E
:10052000207006684FEA420C05FA0CF7BE430F79BB
:1005300007F0030707FA0CF7374307604E6816F415
:10054000403F1CD04C4E376847F4804737603668D0
:1005500022F0030706F480460096484E07EB060C8F
:10056000DCF8086897073F0F09FA07F826EA08063B
:10057000DFF80C81404503D14FF0000841E072E004
:10058000DFF80081404502D14FF0010839E0DFF883
:10059000F880404502D14FF0020832E0DFF8EC80ED
:1005A000404502D14FF003082BE0DFF8E4804045DE
:1005B00002D14FF0040824E0DFF8D880404502D192
:1005C0004FF005081DE0DFF8D080404502D14FF024
:1005D000060816E0DFF8C480404502D14FF0070856
:1005E0000FE0DFF8BC80404502D14FF0080808E07A
:1005F000DFF8B080404502D14FF0090801E04FF02C
:100600000A0808FA07F848EA0608CCF80888DAF871
:1006100000605746D1F804C09E435FEACC2C00D559
:100620001E433E60DBF800605F46D1F804C09E4385
:100630005FEA8C2C00D51E433E60DEF800607746F2
:10064000D1F804C09E435FEA8C3C00D51E433E6057
:10065000084F083F3E68D1F804C09E435FEACC3C97
:1006600000D51E433E60521C102AFFF411AFBDE8B6
:10067000F88F0000083C014044380240003001403F
:10068000000002400004024000080240000C02404A
:10069000001002400014024000180240001C0240FA
:1006A00000200240002402400069084000D00120E0
:1006B00070470AB1816170470904FBE7014880680F
:1006C000704700001400002002488168027811443D
:1006D00081607047140000200B4810B5016841F498
:1006E00000710160016841F480610160016841F4BA
:1006F00080710160032000F061F80F2000F006F81F
:1007000000F024F8002010BD003C024070B50D4DF3
:1007100004464FF47A712878B1FBF0F00A49096871
:10072000B1FBF0F000F0DEFA48B9102C07D200223D
:100730002146501E00F022F800206C6070BD0120A0
:1007400070BD000014000020200000200A4808B5F9
:10075000016841F480410160006800F4804000902D
:100760000548001F016841F080510160006800F0F9
:100770008050009008BD000044380240F0B40E4B99
:100780001B680C46C3F30223C3F10705042D00D9EF
:100790000425191D072901D2002300E0DB1E0126D4
:1007A00006FA05F1491E214099409E40761E1640EA
:1007B0003143F0BC00F09ABE0CED00E0064900F0B9
:1007C000070208684FF6FF03184040EA0220034A78
:1007D00010430860704700000CED00E00000FA05CF
:1007E0002DE9F0470E46050065D0DFF81481D8F8F2
:1007F0000000F7B200F00F00B04207D288F8007096
:10080000D8F8000000F00F00B04254D128683D4CE9
:10081000810712D5400703D5206840F4E0502060DE
:100820002878000703D5206840F4604020602068E5
:10083000A96820F0F000084320602878C0072DD078
:10084000304968680839012812D0022813D00328DB
:1008500011D00968890700292DDA216821F00301E8
:1008600001432160FFF72AFF814641F2883A0EE0FA
:1008700009688903EFE709688901ECE7FFF71EFFC4
:10088000A0EB0901514502D90320BDE8F08720689B
:10089000696800F00C00B0EB810FEFD1D8F80010C0
:1008A000404601F00F01B14207D90770006800F01F
:1008B0000F00B04201D00120E7E72878400705D5B6
:1008C0002068E96820F4E050084320602878000799
:1008D00006D52068296920F4604040EAC100206004
:1008E00000F018F82168084AC1F30311515CC840B0
:1008F0000649086006480068FFF708FF0020C4E7C3
:10090000003C024008380240C432000820000020A9
:1009100018000020154810B5006810F00C021448AB
:1009200013D01449042A0FD0082A0ED10F4C241FCB
:100930002268236802F03F025B0207D52068C0F3FB
:100940008810A0FB010106E0084610BD2168C1F334
:100950008811A1FB00010023FFF798FC2168C1F377
:100960000141491C4900B0FBF1F010BD08380240BC
:100970000024F40040787D012DE9F84F04006ED08A
:100980002078DFF84C93C007A9F104054AD009F19B
:1009900004000168C1F38101012908D00068C0F397
:1009A000810002280AD1D9F80000400206D5286843
:1009B000800337D560680028E1D033E06068B0F587
:1009C000803F10D0B0F5A02F286810D020F48030E0
:1009D0002860286820F4802028606068A8B1FFF7AC
:1009E0006DFE06460DE0286840F48030F4E740F4E0
:1009F00080202860F7E700BFFFF760FE801B6428B7
:100A000073D828688003F7D50CE0FFF757FE064639
:100A100005E000BFFFF752FE801B6428F0D828686D
:100A20008003F7D42078DFF8AC8280074FF0000A0B
:100A30003ED5A748001D016811F00C0F08D00068D2
:100A4000C0F3810002280BD1D9F80000400207D47E
:100A50002868800716D5E068012800D112E033E14C
:100A6000E068B8B10120C8F80000FFF727FE06468D
:100A700005E000BFFFF722FE801B0228C0D82868CF
:100A80008007F7D52868216920F0F80040EAC10006
:100A900028600DE0C8F800A0FFF710FE064604E04D
:100AA000FFF70CFE801B02281FD828688007F7D4A8
:100AB0002078000722D5864F87486169703771B169
:100AC00001210160FFF7FAFD064604E0FFF7F6FD9D
:100AD000801B022809D838688007F7D50EE0C0F8D7
:100AE00000A0FFF7EBFD064605E082E0FFF7E6FD1C
:100AF000801B02287DD838688007F7D4207840070B
:100B000068D5DFF8CCB100270BF13C0BDBF8000017
:100B1000C0000BD4DBF8001041F08051CBF800107E
:100B2000DBF80000012700F0805000906B4E306829
:100B3000C00510D4306840F480703060FFF7BEFD0F
:100B4000009005E0FFF7BAFD0099401A022850D83E
:100B50003068C005F6D55E4EA0686C3601280FD00F
:100B60000528306810D020F001003060306820F097
:100B700004003060A068B8B1FFF7A0FD00900FE05E
:100B8000306840F00100F4E740F004003060F7E71F
:100B9000FFF794FD0099411A41F28830814266D8EE
:100BA00030688007F4D50EE0FFF788FD009007E07D
:100BB000FFF784FD0099411A41F28830814256D8EE
:100BC00030688007F4D42FB1DBF8001021F0805199
:100BD000CBF80010A069C8B33D49091D0968C1F3ED
:100BE000810102294AD00228504607D0C8F8600087
:100BF00000E03CE0FFF762FD04463BE04746C8F8F2
:100C00006000FFF75BFD064605E000BFFFF756FDFD
:100C1000801B02282BD828688001F7D4D4E907016B
:100C20000843A16A2E4A490802EB0141626A41EA7F
:100C30008211084394F82C1040EA0161C9F80010B1
:100C400001203866FFF73AFD044606E03EE000BFAB
:100C5000FFF734FD001B022809D828688001F7D56A
:100C600034E000BFFFF72AFD001B022802D9032051
:100C7000BDE8F88F28688001F4D427E00128F7D078
:100C8000D9F80000E26900F4800191421CD1226A87
:100C900000F03F01914217D147F6C071626A0140EE
:100CA000B1EB821F10D1A26A4FF0FF3300F4403144
:100CB00003EB5202B1EB024F06D194F82C1000F076
:100CC0007060B0EB016F01D00120D1E70020CFE7C9
:100CD0000438024000004742800E47420070004046
:100CE0000000FFFF10B5401EB0F1807F01D301204E
:100CF00010BD4FF0E02460610F21601700F0F6FB9B
:100D00000020A06107202061002010BD70B590F880
:100D10003C20012A32D0012480F83C40022280F895
:100D20003D2003685A689D6822F070060A683243C5
:100D30005A60134B02689A4214D0B2F1804F11D01E
:100D4000104B9A420ED0104B9A420BD00F4B9A4246
:100D500008D00F4B9A4205D00E4B9A4202D00E4B50
:100D60009A4204D1496825F080031943916080F8C4
:100D70003D40002180F83C10084670BD022070BD47
:100D8000000001400004004000080040000C00404A
:100D900000040140004001400018004010B504006C
:100DA00003D094F83D0010B107E0012010BD0020F1
:100DB00084F83C00204600F01FF8022084F83D0033
:100DC000211D206800F0D8FA012084F8460084F83C
:100DD0003E0084F83F0084F8400084F8410084F825
:100DE000420084F8430084F8440084F8450084F805
:100DF0003D00002010BD000008B50068064988428B
:100E000008D10648016841F001010160006800F066
:100E10000100009008BD000000000140443802407D
:100E200070B5044690F83C000025012817D0012633
:100E300084F83C60022084F83D002068826822F03B
:100E4000770222F47F4282600868502838D00DDC97
:100E500020284FD005DC90B3102811D14AE00220A1
:100E600070BD302846D040280AD13BE060282FD002
:100E700070280DD0B0F5805F03D0B0F5005F12D0C0
:100E8000012584F83D60002084F83C00284670BDB0
:100E9000CB68D1E90121206800F0DAFA2068816886
:100EA00041F0770109E0CB68D1E90121206800F029
:100EB000CFFA2068816841F480418160E1E719E060
:100EC000CA684968206800F0D5FA5021206806E019
:100ED000CA684968206800F0DEFA6021206800F0E6
:100EE000C1FACEE7CA684968206800F0C3FA402119
:100EF0002068F4E7226801461046F0E7FEE70000AC
:100F00002DE9F0470746DDE908891C4615460E46DF
:100F10003B2000F0A3F882463C2000F09FF840EA16
:100F20000A2038803D2000F099F882463E2000F0EB
:100F300095F840EA0A2030803F2000F08FF8824682
:100F4000402000F08BF840EA0A202880432000F07F
:100F500085F88246442000F081F840EA0A2020808B
:100F6000452000F07BF88246462000F077F840EA02
:100F70000A20A8F80000472000F070F882464820B8
:100F800000F06CF840EA0A20A9F80000B7F9000068
:100F900000EE100A2048F8EEC00A9FED1E0A60EE2F
:100FA000800AC0ED000AB6F9001000EE901AF8EEC3
:100FB000E00A60EE800AC0ED010AB5F9001000EE0B
:100FC000901AF8EEE00A20EE800A80ED020AB4F9E9
:100FD000001000EE101AF8EEC00A9FED100A80EE25
:100FE000801A80ED031AB8F9001000EE901AF8EE9E
:100FF000E00A80EE801A80ED041AB9F9001000EEC4
:10100000901AF8EEE00A80EE801A80ED051ABDE82D
:10101000F08700000000003AF000002033338341E5
:10102000752000F01BB810B501216B2000F035F8D9
:1010300000216C2000F031F80921192000F02DF872
:1010400006211A2000F029F818211B2000F025F8AD
:101050001821BDE810401C2000F01FB810B5044650
:1010600000F0F9F8D02000F0E0F800F0ABF82046EE
:1010700000F0DBF800F0A6F800F0EDF8D12000F069
:10108000D4F800F09FF800F0ACF80446012000F01E
:10109000C1F800F0EFF8204610BD70B50D460446CB
:1010A00000F0D9F8D02000F0C0F800F08BF820460E
:1010B00000F0BBF800F086F8284600F0B6F800F023
:1010C00081F8BDE8704000F0D5B8000030B587B0B9
:1010D00014216846FFF751F916480024016841F0D1
:1010E00010010160016801F010010591016841F0F3
:1010F00080010160016801F080010591016841F003
:101100000101016000680C4D00F001000590012212
:1011100018212846FFF7CDFA182000901120CDE9BC
:1011200001040320039069462846FFF7A3F907B09E
:1011300030BD0000303802400010024010B586B0CB
:1011400000241748009401940294039404941349D2
:10115000059401605321C0E901144FF6FF71C0E905
:10116000031444618461FFF719FE08B1FFF780F9A9
:101170004FF48050009069460948FFF751FE08B1CE
:10118000FFF776F9049404A905480594FFF7BEFD1E
:10119000002801D0FFF76CF906B010BD0000014037
:1011A00088000020FEE7000010B510210448FFF77A
:1011B0007BFA04460A20FFF754F9204610BD0000D0
:1011C0000010024010B5012000F06EF8012000F080
:1011D0005DF8FFF7E9FF0446002000F057F82046CD
:1011E00010BD70B50025012000F05EF800248026B7
:1011F000012000F04BF8FFF7D7FF10B126FA04F0FA
:101200000543002000F042F8641CE4B2082CEFD340
:10121000284670BD10B500F047F8012000F036F800
:10122000BDE81040002000F031B870B5002406463B
:10123000802525FA04F0304000D0012000F034F879
:10124000012000F023F8002000F020F8641CE4B234
:10125000082CEED370BD10B5012000F025F8012058
:1012600000F014F8002000F01FF8BDE81040002046
:1012700000F00CB810B5002000F016F8012000F0C6
:1012800005F8BDE81040012000F00EB810B5024688
:1012900008210448FFF70DFABDE810400A20FFF7C7
:1012A000E0B800000010024010B5024610210448CA
:1012B000FFF7FFF9BDE810400A20FFF7D2B80000A1
:1012C00000100240FEE770477047FFF7FDB90000CD
:1012D00030B593B030216846FFF74FF814210CA8C1
:1012E000FFF74BF81E480025016841F0805101606E
:1012F000006800F0805011901A48016841F44041A4
:1013000001600068022400F4404011900120009028
:10131000000401908001CDE90640192008904FF4A7
:10132000A870CDE9090404200B906846FFF724FB60
:1013300008B172B6FEE70CA90F2081E831004FF426
:10134000A0500F904FF48050109005210CA8FFF78B
:1013500047FA002801D072B6FEE713B030BD000096
:1013600040380240007000400248016841F47001BA
:101370000160704788ED00E0F0B50268294C2A4D05
:101380002A4E2B4F2B4B4FF0804CA04209D060458A
:1013900007D0A84205D0B04203D0B84201D098424D
:1013A00004D122F0700E4A6842EA0E02A0421BD01D
:1013B000604519D0A84217D0B04215D0B84213D01A
:1013C000984211D01C4DA8420ED01C4DA8420BD003
:1013D0001B4DA84208D01B4DA84205D01A4DA8426B
:1013E00002D01A4DA84203D122F44075CA682A439C
:1013F0004D6922F080022A4302608A68C2620A684C
:101400008262A04201D0984201D1096901630121A1
:1014100041610169C90703D0016921F0010101613E
:10142000F0BD000000000140000400400008004042
:10143000000C004000040140004001400044014015
:101440000048014000180040001C004000200040FF
:1014500010B5846842EA032224F47F440A432243FD
:10146000826010BD826822F070020A4342F00701D8
:101470008160704710B5036A046A24F001040462B5
:10148000846924F0F00444EA021423F00A020A43B7
:101490008461026210BD10B5036A046A24F010046E
:1014A0000462846923F0A00324F4704444EA023205
:1014B00043EA01118261016210BDFEE703B40198A5
:1014C0004100009850EAC12018BF04204A0D18BFFF
:1014D00040F0010040F2FF72B2EB515F08BF40F0F4
:1014E0000200012808BF052002B070470907090E55
:1014F000002804DB00F1E02080F80014704700F0C1
:101500000F0000F1E02080F8141D7047000000007B
:1015100070B59B482DED020B2DED068B079D25F038
:101520000044A04218DC9748844202DC0AD10698A5
:1015300040B19DED060BBDEC068B02B0BDE87040DE
:1015400000F042BE002DCCBF9FED8F0B9FED900BA6
:10155000BDEC068B02B070BD8F48A04215DD8F48F0
:10156000A042D8BF4FF0FF3458DD9DED060B51EC83
:10157000100BFFF7A3FF042808BF00F041FE9DED0C
:10158000060BBDEC068B02B070BD9DED060B51EC59
:10159000100B00F045FECDE9060181489FED828BDE
:1015A000A0423CDD8248A0421FDD00249FED82ABBB
:1015B0009DED060B53EC1A2B51EC100B01F074F857
:1015C0009DED060B41EC190B53EC1A2B51EC100B53
:1015D00001F00CFB53EC182B01F014FD53EC192B0C
:1015E00001F016F9CDE9060149E09DED060B012455
:1015F00053EC182B51EC100B01F056F89DED060B37
:1016000041EC190B53EC182B51EC100B01F0FAFCC8
:1016100053EC192B01F0FCF8CDE906012FE06848E6
:10162000A0421FDD02249FED689B9DED060B53EC4D
:10163000192B51EC100B01F0D9FA53EC182B01F0D7
:1016400033F89DED060B41EC180B53EC192B51ECC4
:10165000100B01F0D7FC53EC182B01F0D9F8CDE9B1
:1016600006010CE09DED060B032453EC102B9FEDBF
:10167000580B51EC100B01F0CBF8CDE906019DEDB4
:10168000060B53EC102B51EC100B01F0AFFA41ECB0
:10169000180B53EC182B01F0A9FA41EC190B4E482A
:1016A0000621B0EE490AF0EE690A784400F078FCB1
:1016B00053EC182B51EC100B01F098FA41EC180B7D
:1016C0004648B0EE490AF0EE690A0521784400F078
:1016D00067FC53EC192B51EC100B01F087FA41EC2D
:1016E000100B51EC180B53EC102B002C0EDA00F001
:1016F000DBFF9DED061B53EC112B01F077FA9DEDFE
:10170000061B53EC112B01F0A5FB35E000F0CCFFDC
:101710009DED061B53EC112B01F068FA41EC100B08
:101720002F48784400EBC40090ED001B51EC100BE7
:1017300053EC112B01F066FC9DED061B53EC112BB5
:1017400001F060FC41EC100B2648784400EBC4002B
:1017500090ED001B51EC100B53EC112B01F07AFBB8
:1017600041EC100B002DA2BFBDEC068B02B070BD8A
:1017700051EC100B00F08CFF41EC100B01E7000066
:10178000000010440000F07F182D4454FB21F93F65
:10179000182D4454FB21F9BF0000DC3F0000203E1F
:1017A0000000F33F00000000000000000000F03FD8
:1017B0000000E63F000000000000000000000040C4
:1017C0000080034000000000000000000000F83F1F
:1017D000000000000000F0BFAA1C0000601C000018
:1017E000EA1B0000A21B000010B52F499FED2C1B27
:1017F0002DED020B84B0059820F000408842D8BF40
:101800009DED040B2DDD2949884209D1049840B98A
:101810004FF00100FEF7E0FD00F0E2FC06B010BD65
:1018200005DB9DED040B00F0CFFC06B010BD684653
:101830009DED040B00F0E0F810F0030004BF9DEDF7
:10184000021B9DED000B0CD001280ED09DED021B5C
:101850009DED000B022817D0012000F01DFC06B002
:1018600010BD00F0E5FA06B010BD9DED021B9DED28
:10187000000B012000F010FC51EC100B00F008FFF1
:1018800006B041EC100B10BD00F0D2FA51EC100B79
:1018900000F0FEFE06B041EC100B10BD0000000091
:1018A0000000000000000000FB21E93F0000F07F85
:1018B00010B52F499FED2C1B2DED020B84B0059820
:1018C00020F000408842DCBF00209DED040B32DD9B
:1018D0002849884209D1049840B94FF00100FEF729
:1018E0007BFD00F07DFC06B010BD05DB9DED040B1B
:1018F00000F06AFC06B010BD68469DED040B00F0D8
:101900007BF810F0030011D0012818D09DED021BC8
:101910009DED000B02281AD000F08AFA51EC100B52
:1019200000F0B6FE06B041EC100B10BD9DED021BA1
:101930009DED000B012000F0AFFB06B010BD9DED4A
:10194000021B9DED000B00F073FA06B010BD0120E4
:1019500000F0A2FB51EC100B00F09AFE06B041EC37
:10196000100B10BD0000000000000000000000008F
:10197000FB21E93F0000F07F00B52DED048BB0EEB8
:10198000409AF0EE609A83B051EC190B01F06EFAB8
:1019900041EC180B18EE100A18EE901A8DED008B22
:1019A000002818BF0120084320F00040C0F17F60EC
:1019B00000F1E040C00F14D019EE101A19EE900A91
:1019C0008DED009B002918BF0121084320F0004045
:1019D000C0F17F6000F1E040C00F04BF0120FEF7BE
:1019E000FBFCB0EE480A03B0F0EE680ABDEC048BD5
:1019F00000BD0000000000002DE9F14F04462DED70
:101A0000020B2DED088B8AB09FEDE70B80ED020BEA
:101A1000139EE74826F0004585420ADC9DED120B37
:101A2000002084ED000B0AB0BDEC088B03B0BDE8CC
:101A3000F08FE0489FEDE0AB9FEDE1BBA84247DDB2
:101A4000E14F9FEDE39B9FEDE48B9DED120B53EC7B
:101A50001A2B51EC100B002E1CDD01F0D3FA41ECD7
:101A6000100BBD4208D053EC1B2B51EC100B01F0B6
:101A7000C9FAC4E900010BE053EC192B51EC100B2F
:101A800001F0C0FA53EC182B01F0BCFAC4E90001D4
:101A90000120C8E700F008FE41EC100BBD4208D061
:101AA00053EC1B2B51EC100B00F0FEFDC4E90001C0
:101AB0000BE053EC192B51EC100B00F0F5FD53EC3F
:101AC000182B00F0F1FDC4E900014FF0FF30AAE748
:101AD000C348A84279DB9DED120B51EC100B00F0CE
:101AE0009FFB41EC180B9FEDC00B53EC102B01F04A
:101AF0007DF89FEDBF1B53EC112B00F0D5FD00F0DE
:101B0000DFFF074601F00BF841EC190B53EC1A2BE1
:101B100001F06CF853EC182B01F09CF941EC180B18
:101B200053EC1B2B51EC190B01F060F8DFF8C8A245
:101B300041EC100B4FEA15580125FA4453EC102BD9
:101B400051EC180B01F05EFA032DC4E900013DD001
:101B5000C1F30A5005EB4511A8EB00001139814291
:101B600034DA0AEB051BB0EE48AA9BED000BF0EE51
:101B700068AA53EC102B51EC190B01F037F841EC2B
:101B80001B0B51EC1A0B53EC1B2B01F03BFA41ECF5
:101B9000180B51EC1A0B53EC182B01F033FA53ECE1
:101BA0001B2B01F02FFA9BED020B41EC1A0B53ECAF
:101BB000102B51EC190B01F019F853EC1A2B01F012
:101BC00021FA41EC100B6D1CB8E70EE0002EA8BF07
:101BD0003846BFF628AF94ED000B51EC100B00F027
:101BE00057FDC4E9000178421DE7C6F3130040F435
:101BF000801EC6F30A50A0F2F530471100F01F0511
:101C0000C5F12000DDF848B008900020069007904C
:101C10000520EC467949002D07EB0002794408BF06
:101C200051F8221009D051F8223001EB8201AB406B
:101C30004A68089922FA01F11943A1FB0E26A1FB7B
:101C40000B131A449A4234BF0123002303EB060806
:101C50000CEB8003D3E901A60E448E4234BF012170
:101C6000002192448A4411B1924502D903E0924581
:101C700001D2012100E00021C3E901A641444CF852
:101C80002010011EA0F10100C4DC029800F10050F8
:101C9000850F0298DDE903678000DDF8148000F00D
:101CA0003EFF41EC1A0B304600F050FF9FED541BF5
:101CB00053EC112B00F09AFF41EC1B0B384600F05F
:101CC00045FF9FED511B53EC112B00F08FFF41ECB2
:101CD000180B404600F03AFF9FED4D1B53EC112BC3
:101CE00000F084FF41EC190B51EC180B53EC192B4D
:101CF00000F0DAFC53EC1B2B00F0D6FC53EC1A2B53
:101D000000F0D2FCCDE90801002008909DED080B01
:101D100053EC1A2B51EC100B01F074F953EC1B2B04
:101D200001F070F953EC182B01F06CF953EC192BFE
:101D300001F090F89FED381B53EC112B00F056FF8B
:101D40009FED370B41EC180B53EC102B9DED080B5E
:101D500051EC100B00F04AFF53EC182B00F0A4FCE0
:101D60009FED310B41EC180B53EC102B9DED080B44
:101D700051EC100B00F03AFF53EC182B00F094FCE0
:101D800041EC100B139810F0004F06D06D4251EC4F
:101D9000100B00F07DFC41EC100B284684ED000B8D
:101DA00041E600000000000000000000000000000C
:101DB000FB21E93F7CD9024000004054FB21F93F60
:101DC0003163621A61B4D03DFB21F93F000000008D
:101DD0000000601A61B4D03D7370032E8A19A33BD2
:101DE000FB2139410000000083C8C96D305FE43F2A
:101DF000000000000000E03F7A180000C817000053
:101E0000000000000000103E000000000000103C38
:101E1000000000000000103A182D4454FB21F93D49
:101E20003326A611460B113C00000054FB21F93D5E
:101E300010B52DED040B2DED088B82B0B0EE419A5C
:101E4000F0EE619A0B9820F000449FED4BABB4F19B
:101E5000795F11DA9DED0A0B51EC100B00F030FEAA
:101E6000002801BFB0EE4A0AF0EE6A0A02B0BDECEB
:101E7000088B04BF04B010BD9DED0A0B53EC102B72
:101E800051EC100B00F0B2FE41EC180B3C4806215F
:101E9000B0EE480AF0EE680A784400F081F853EC9E
:101EA000182B51EC100B00F0A1FE9DED0A0B41EC3C
:101EB0001B0B53EC192B51EC100B00F097FE41EC6F
:101EC000190B53EC1B2B51EC180B00F08FFE53EC4D
:101ED000192B01F097F89FED2C0B41EC190B53ECEB
:101EE000102B51EC180B00F081FE41EC100B284830
:101EF000844210DA53EC192B51EC100B01F082F8EC
:101F000053EC1A2B00F0A6FF41EC100B02B0BDEC15
:101F1000088B04B010BD1F48A042BCBF9FED1E1B24
:101F20008DED001B06DBA4F5001001900020009051
:101F30009DED001B51EC100B53EC112B01F062F8DE
:101F40009DED000B41EC180B53EC102B51EC1A0BD0
:101F500001F058F841EC1A0B53EC192B51EC180B0B
:101F600001F050F853EC1A2B00F074FF41EC100B09
:101F7000CCE7000000000000000000000000F03F7F
:101F8000EC14000000000000000000000000E03F32
:101F90003333D33F0000E93F000000000000D23F90
:101FA00070B504462DED028B4D1E00EBC500B0EE62
:101FB000408AF0EE608A90ED000B35F0060017D0F5
:101FC00053EC182B51EC100B00F010FE41EC100BF1
:101FD0006D1E04EBC50090ED001B51EC100B53EC93
:101FE000112B00F061FB41EC100B35F00600E7D13E
:101FF000022D36D0042D1CD0062D1CBFBDEC028B4B
:1020000070BD53EC182B51EC100B00F0EFFD94ED6C
:102010000A1B53EC112B00F047FB53EC182B00F07C
:10202000E5FD94ED081B53EC112B00F03DFB41EC5A
:10203000100B53EC182B51EC100B00F0D7FD94ED66
:10204000061B53EC112B00F02FFB53EC182B00F068
:10205000CDFD94ED040B53EC102B00F025FB41EC6F
:10206000100B53EC182B51EC100B00F0BFFD94ED4E
:10207000021B53EC112B00F017FB53EC182B00F054
:10208000B5FD94ED001B53EC112B00F00DFBBDECE6
:10209000028B41EC100B70BD31B504462DED040BE5
:1020A0002DED0A8BB0EE41BAF0EE61BA0B989DEDC2
:1020B0000A0B20F00040B0F1795F0DDA51EC100B03
:1020C000FFF7FCF9042808BF00F09AF89DED0A0B11
:1020D000BDEC0A8B05B030BD53EC102B51EC100B4E
:1020E00000F084FD41EC180B9DED0A0B53EC182B0E
:1020F00051EC100B00F07AFD41EC190B2C48B0EEBE
:10210000480AF0EE680A05217844FFF749FF9FED81
:102110002ACBB0EE40AAF0EE60AA9CB353EC1C2B85
:1021200051EC190B00F062FD41EC1C0B53EC1A2B27
:1021300051EC190B00F05AFD9FED210B41EC190BEE
:1021400053EC102B51EC1B0B00F050FD53EC192BF2
:1021500000F058FF53EC182B00F048FD53EC1B2BFC
:1021600000F050FF53EC1C2B00F04CFF9DED0A1BC0
:1021700053EC112B00F06EFEBDEC0A8B05B041EC68
:10218000100B30BDFFE753EC1A2B51EC180B00F08D
:102190002DFD53EC1C2B00F087FA53EC192B00F0AB
:1021A00025FD9DED0A1B53EC112B00F07DFAE3E7B2
:1021B0007413000000000000495555555555C5BF22
:1021C000000000000000E03F10B553EC102B51EC74
:1021D000100B00F069FA41EC100B10BD000000007C
:1021E0009FED050B10B553EC102B51EC100B00F0CC
:1021F0000FFB41EC100B10BD0000000000000000C0
:102200009FED050B10B553EC102B51EC100B00F0AB
:10221000EDFC41EC100B10BD0000000000000010B0
:1022200082B0CDE9000121F0004001909DED000B4E
:1022300002B051EC100B70472DE9F041EC4D2DED43
:102240000E8B9FEDEC8BED4E9FEDEDCB9FEDEEDB1E
:10225000EF4FA5F14004D7ED019A97ED029A89EE70
:10226000890A10EE100A00F0B7FF41EC100BFFF7DF
:102270004FF99FEDE8AB51EC100B53EC1A2B00F02B
:10228000B5FC9FEDE61B53EC112B00F0C1FA29EED3
:10229000A90AC4E9080109EE090A10EE100A00F0C3
:1022A0009BFF41EC100BFFF767FBB0EE409AF0EE9E
:1022B000609A386800F090FF53EC192B00F0A8FAF0
:1022C00041EC100BFFF724F953EC1A2B51EC100BD7
:1022D00000F08CFC9FEDD31B53EC112B00F098FA0F
:1022E0009FEDD20BC4E9040184ED0E0B786900F078
:1022F00073FF41EC190B94ED0A0BFFF775FAB0EE82
:1023000040AAF0EE60AA94ED0A0BFFF7D1FAB0EE06
:1023100040BAF0EE60BA94ED0C0BFFF765FAB0EE40
:10232000401AF0EE601A53EC1B2B51EC110B00F02D
:102330005DFC53EC1A2B00F06BFA53EC192B00F0F8
:1023400055FC41EC1A0B386900F046FF41EC1B0BC1
:1023500094ED0A0BFFF748FAB0EE409AF0EE609A5F
:1023600094ED0C0BFFF7A4FAB0EE40EAF0EE60EA51
:1023700094ED0A0BFFF79CFAB0EE401AF0EE601AEB
:1023800053EC1E2B51EC110B00F030FC53EC192BCD
:1023900000F03EFA53EC1B2B00F028FC41EC190B2B
:1023A000F86800F019FF53EC192B00F07DF953EC9D
:1023B0001A2B00F079F994ED0E1B53EC112B00F061
:1023C00015FC94ED0CAB53EC1A2B00F06DF9C4E93D
:1023D0000601786900F000FF41EC190BB0EE4A0AE3
:1023E000F0EE6A0AFFF764FA53EC192B51EC100B6C
:1023F00000F0FCFB41EC1A0B386900F0EDFE41ECFB
:10240000190B94ED0C0BFFF7EFF953EC192B51EC72
:10241000100B00F0EBFB53EC1A2B00F0F3FD94EDE6
:102420000E1B53EC112B00F0E1FB94ED0A1B53EC57
:10243000112B00F039F941EC190B95ED000B9FEDD4
:102440007DAB51EC100B53EC1A2B00F02DF941EC45
:102450001B0B53EC1A2B85ED00BB85ED028B85ED34
:10246000048B95ED060B51EC100B00F01DF941ECBF
:102470001A0B85ED06AB9FED71EB51EC1B0B53EC8A
:102480001E2B00F011F941EC100B51EC1B0B53EC1F
:10249000102B00F0BDF941EC1B0B53EC1E2B86ED0D
:1024A00000BB86ED028B86ED048B51EC1A0B00F01D
:1024B000FBF841EC100B51EC1A0B53EC102B00F015
:1024C000A7F941EC1A0B86ED06AB94ED06EB94ED03
:1024D000080B53EC1E2B51EC100B00F093FD53EC4A
:1024E0001B2B00F083FB53EC1E2B00F0DDF8C4E93E
:1024F000060194ED040B53EC192B51EC100B00F07A
:1025000081FD53EC1A2B00F071FB53EC192B00F0FA
:10251000CBF841EC100B53EC1C2B84ED020B00F0BC
:1025200029FB01D2206820B394ED020B53EC1C2B45
:1025300051EC100B00F058FC0BD294ED020B53EC55
:102540001D2B51EC100B00F015FB02D22068012866
:1025500011D094ED020B53EC1D2B51EC100B00F03D
:1025600043FC02D22068022839D02068032838D0E2
:1025700003E0012000E00220206096ED000B9FEDBB
:10258000319B53EC102B51EC190B00F03BFD95EDFA
:10259000001B53EC112B00F029FBC5E9000185ED70
:1025A000028B85ED048B96ED060B51EC190B53EC69
:1025B000102B00F027FD95ED061B53EC112B00F0BE
:1025C00015FBC5E9060194ED020B84ED0A0B94EDB1
:1025D000060B84ED0C0BBDEC0E8BBDE8F0810320E7
:1025E00020601A480168491C01600020C4E700000F
:1025F000680000200000000000000000D000002063
:102600000000000000003EC00000000000003E404E
:10261000F000002000000000008066401F85EB51A4
:10262000B81E09401F85EB51B81E09C0FCA9F1D2A4
:102630004D62503F7B14AE47E17A643F333333330E
:102640003333D33F000000000000F03F00000020C3
:102650001CB5FEF741F8FEF73BFEFEF737FDFEF72F
:102660006DFDFEF7E0FCFEF7DBFC084901F10C050F
:102670000870AC1E054BCDE9004508339A1E911E2B
:10268000881EFEF73DFCFFF7D7FDF3E704000020AE
:1026900081F00041704780F00040704721F0004118
:1026A000704720F00040704710B591EA030F48BF13
:1026B00083F0004300F1AE84841A71EB030C05D261
:1026C000121943EB0C03001B61EB0C01DFF824E152
:1026D0004FEA1154A4EB135C1EEA430F18BF9EEAA5
:1026E000445F73D023EA0E03DCF1200E21EA04518B
:1026F00043F4801332D322FA0CFE10EB0E0023FABF
:102700000CFE41EB0E01CCF1200E03FA0EFE10EB95
:102710000E0051F10001B1F5801FCCF1200E32D234
:1027200001EB045112FA0EF2BDE8104058BF704799
:10273000401C38BF5FEA420218BF7047002814BF30
:1027400020F0010041F100014FEA410313F5001FA1
:1027500038BF7047A1F1C04100F040BB012A43EBF4
:102760000302ACF1200CDCF11F0E32BF4FF0000E63
:1027700023FA0CF310EB030041EB0451B4EB115FAF
:10278000D0D0A1EB045101F5801149085FEA300077
:1027900001EB04510ED350F1000038BF12FA0EFEC7
:1027A00008D1BDE81040C9E7401C38BF5FEA4202CB
:1027B000CAD1C3E7BDE810404FEA410313F5001F3B
:1027C00038BF7047A1F1C04100F008BB9EEA445FEA
:1027D00008D011EA5E0FBDE8104004BF01F00041CF
:1027E00000207047BDE8104070B500F0A9FA00BFA6
:1027F00064FBBE3E0000E0FF491058BFC1F14041FC
:102800005B1058BFC3F140438B42EFF30080704729
:102810002DE9C04130B4DFF8A0C23CEA111418BF62
:102820003CEA131400F0EC8081EA03051CEA111461
:1028300044EAD57418BF1CEA131500F0C780A4EB56
:1028400005044FF0004545EAC12145EAC32341EAAA
:10285000505143EA525304F17F74994204F5003415
:102860004FEAC0204FEAC22208BF904200F09C808D
:102870004FEA13650FF24016765D4FEA134506FBEB
:1028800005F7C7F1807706FB07F74FEAD737A7FBB5
:1028900003687642C8F58038A7FB06CE38BFA8F19A
:1028A000010807FB08E64FF0000EA6FB028CE6FBD2
:1028B00003CEDCF1000CCEF1004E38BFAEF1010EBC
:1028C000A6FB0C584FF000074FF00005E6FB0E8703
:1028D000A1FB08C6A0FB07CE16EB0E0645F10005CE
:1028E000E1FB076515F1E04E7EBFA4F580345FEA99
:1028F00046066D4116F1800745F100054FEA17279E
:102900004FEA066647EA0567A6F1DE46B6F1805F44
:102910004FEA15251FD9384624F0010C05EBC47188
:10292000BCF1FE6F01EB0C1102D8F0BCBDE80081D8
:1029300024425CBF01F5801E9EEAC47F02D4F0BC35
:10294000BDE80081244238D4F0BCA1F1C041BDE80B
:10295000004100F043BA4FEAD22242EA43524FEA22
:10296000D323A7FB02864FEAD02040EA415007FB61
:1029700003661EEA0E0F4FEAD12105FB026658BF1F
:10298000A6EB0056B6EB00564FEA520E4EEAC37E57
:1029900018EB0E0E56EB530EBDD518EB02085E4138
:1029A0007F1C55F10005B6E74FF480154FF0000786
:1029B0004FF000064FF00008ADE7F0BC4FF000000C
:1029C00001F1C04101F00041BDE8008111EA0C1F96
:1029D0000CEA131500D00CE013EA0C1F00F0258060
:1029E0004FF00000F0BC81EA030101F00041BDE8B6
:1029F0000081F0BCBDE8004181EA030100F0EEB9BE
:102A0000F0BCBDE8004170B500F09AF9097EFC3ECB
:102A100000F007B881EA03014FF0000001F0004127
:102A2000704781EA030100F0D9B9F0BCBDE800416C
:102A30004FF0000021497047FFFDFBF9F7F5F4F274
:102A4000F0EEEDEBE9E8E6E4E3E1E0DEDDDBDAD849
:102A5000D7D5D4D3D1D0CFCDCCCBCAC8C7C6C5C4A7
:102A6000C2C1C0BFBEBDBCBBBAB9B8B7B6B5B4B3BE
:102A7000B2B1B0AFAEADACABAAA9A8A8A7A6A5A4A9
:102A8000A3A3A2A1A09F9F9E9D9C9C9B9A9999986D
:102A90009797969595949393929191908F8F8E8E10
:102AA0008D8C8C8B8B8A898988888787868585849D
:102AB00084838382828181800000FF070000F87F89
:102AC0004FEA41034FEA5353A3F58063D3F11E034A
:102AD000C8BFD3F1210C0CDD4FF0004242EAC12205
:102AE00042EA505232FA03FC8CEAE17CACEBE17032
:102AF0007047102BC4BF0020704703F5787CBCF1F1
:102B0000FF3F04D06FF0004282EA2100704770B5A9
:102B100000F016F94992248000207047F2E710F087
:102B2000004248BF4042B0FA80F310FA03F10AD0E5
:102B3000C3F11D0303F580634FEA415002EB0352DA
:102B400002EBD12170474FF000007047B0FA80F3DC
:102B500010FA03F10AD0C3F11D0303F580634FEAB5
:102B600041504FEA035202EBD12170474FF0000071
:102B70007047000051EA030C17D41CF5801F58BFA2
:102B8000BCF5801F00F10680994218BF704708BF4E
:102B90009042704707D711F5801F58BF13F5801F6B
:102BA00019D499427047894270471CF5801F08D597
:102BB000BCF5801FF7D58B4218BF704708BF824213
:102BC00070474FF4001C1CEB410F38BF1CEB430F48
:102BD00001D28B42704770B500F0B2F892244900E0
:102BE0004FF000514FF08053FFF706BEDFF848C1A9
:102BF00070B51CEA111E1EBF1CEA13159EEA0C0FCD
:102C000095EA0C0F00F06F8081EA030423EA4C136D
:102C10004EEAD47E21EA4C1141F4801143F4801332
:102C2000AE44A1FB024CA0FB0365AEF17F7E3619DA
:102C300055EB0C05A1FB034C4CF10003A0FB021C5F
:102C400016EB0C06654153F10003094218BF46F02C
:102C5000010613F4007F0BD14FEA03314FEA053030
:102C6000340341EA155140EA16506FF003020AE0BE
:102C70004FEAC3214FEAC520F40241EA555140EA28
:102C800056506FF0020202EB2E4201EB025585EA2C
:102C9000CE710AD05FEA440C18BF24F0004450F112
:102CA000000041F1000120EAD47040F2FE7C624550
:102CB00000D270BDA84214BF4FF080444FF0404492
:102CC000002E08BF0024BEF1806FA8BFA1F1C04153
:102CD000BDE8704080F282804FF0000001F1C041F9
:102CE00001F0004170479EEA0C0F0CEA131518BF63
:102CF00095EA0C0F06D04FF0000081EA030E0EF0AB
:102D0000004170BD00F01CF88900013E00F007B8DA
:102D100000F009B84FEA430C5FEA5C5C08D081EA36
:102D2000030100F05BB84FEA410C5FEA5C5CF6D14E
:102D30004FF00000014970470000FF070000F87FD6
:102D40000EF1020E2EF0030E5EF8046B364205D42F
:102D5000012A43EB030515F5001F12D8012841EBAA
:102D6000010C1CF5001F0CD80ED14FEAD17C15F5D3
:102D7000001F0CEB4C0C0CF1020C08BF4CEBD37C8D
:102D800004E04FF0080C01E04FEAD37C0CEB4C055B
:102D900026FA05F606F00706B6F1040C06D20EEB8D
:102DA000860CBDE870404CF0010C6047DFE80CF089
:102DB000090B02024FF000414FF00000A1F5002185
:102DC00070BD19461046012851EB010418BFD4F517
:102DD000001484BF002001F0004170BD0808A0F578
:102DE00000114FEA3101704753EA010C17D41CF56A
:102DF000801F58BFBCF5801F00F106808B4218BFB2
:102E0000704708BF8242704707D713F5801F58BF2D
:102E100011F5801F19D48B4270479B4270471CF5F7
:102E2000801F08D5BCF5801FF7D5994218BF7047A1
:102E300008BF904270474FF4001C1CEB430F38BF93
:102E40001CEB410F01D2994270470FB40CBC03BC7C
:102E5000FFF7C1BE91EA030F10B581F000413FF5C5
:102E60002BAC83F0004300F0D5B800002DE9F04111
:102E700001F5801CBCF5001FC0F2A9804FEA115C6F
:102E800021EA0C510CF1FD0C41F480115FEA5C0C5D
:102E90000CF5C07C01D34000494130A4890241EACD
:102EA000905187028E0E0A0CA45D04FB04F602FB0F
:102EB00006F6C6F14046A4FB0662F60D46EA422637
:102EC00006FB06F4A4FB01235242C3F1404338BF82
:102ED0005B1EA6FB02420024E6FB0324D20B42EA5F
:102EE0004446A6FB0623A1FB02E2A3FB07E4E3FBA7
:102EF00061426442C2F1404E38BFAEF1010EA6FB02
:102F000004234FF00002E6FB0E32A2FB034634001E
:102F1000E2FB6264A1FB06E6A4FB07E8E4FB616850
:102F20007642C8F1405838BFA8F10108A2FB06E478
:102F3000A3FB08E5E2FB6854A1FB05E6A7FB04E858
:102F4000E1FB648618F1200556F10006A809A8F1F6
:102F50001B08B10908F03F08B8F10A0F40EA866083
:102F60001CD901EB0C51BDE8F08100BFFCF5EEE887
:102F7000E2DDD8D3CFCBC7C3C0BDB9B6B4B1AEAC18
:102F8000A9A7A5A3A19F9D9B9A9896959392908F90
:102F90008D8C8B898887868584838281A0FB0068DD
:102FA00000FB01F208EB4208B8EB872807D534187C
:102FB00058EB0104D5D5401C51F10001D1E7341A7A
:102FC00078EB0104CDD4401E71F10001C9E75FEA3E
:102FD0004C0C5FEA9C5C0DD105D34FF0000001F072
:102FE0000041BDE8F081BDE8F04170B5FFF7A8FEF3
:102FF0006DDBFFBEBDE8F0414FF0000000497047B7
:103000000000F87F10B591EA030F48BF83F000433A
:103010003FF552AB841A71EB030C07D212198CF0F6
:10302000004C43EB0C03001B61EB0C01DFF8A4E147
:103030004FEA1154A4EB135C1EEA430F18BF9EEA3B
:10304000445F00F0B08023EA6E03524221EA04514B
:10305000C3EB6E0338BF5B1EDCF1200E25D322FAD2
:103060000CFE10EB0E0043FA0CFE41EB0E01CCF10E
:10307000200E03FA0EFE10EB0E0051F10001CCF110
:10308000200E29D412FA0EF201EB0451BDE81040D3
:1030900058BF7047401C1CBFB2F1004F704700285A
:1030A0000CBF491C20F00100704712EB020E43EBED
:1030B000030218BF4FF0010E4EEA4202ACF1200CA1
:1030C000DCF11E0E54D943FA0CFE10EB0E0051F148
:1030D000FF31CCF11E0ED5D50EF1010E12FA0EFE07
:1030E000404141EB010101EB445C5FEA5C5C10D9BB
:1030F00010EBDE7001EB045138BFBEF1004FBDE8AC
:10310000104018BF704700280CBF491C20F0010078
:10311000704730D24FEAD42C11F5001124F400642A
:103120001BD0B1FA81F20B3AA41AA41ED2F12003EB
:10313000914030FA03F31943904001EBCC71002C1D
:1031400001EB0451BDE81040A8BF704701F1C04138
:103150004FF0000001F000417047B0FA80F310FA20
:1031600003F100D110BDE41A173C4805C90AE4E791
:1031700001EB045110BD491001EB0451BDE81040B2
:103180004FEA300002E04FF0000170474A0008BFEC
:103190000042F8D0B2F5001F28BF704701F000418F
:1031A0004FF0000070479EEA445F07D011EA5E0FBF
:1031B000BDE8104004BF002100207047BDE810406A
:1031C00070B5FFF7BDFD00BF40DFF63E83F0004164
:1031D000104670470000E0FF43004FEAD30C4FEA6F
:1031E0003C0C43401FBF40070CF1605113F0FE4FF1
:1031F00070471CF0006F03D100200CF000417047B5
:103200000CF0004343EA507010B540EACC0000F0E7
:103210000EF800BF000000924FEA0001FFF7DEBD8C
:103220004FF000414FF00000A1F5002170470EF172
:10323000020E2EF0030E5EF8044B244204D44FEA33
:103240004102B2F17F4F11D84FEA4003B3F17F4FF3
:103250000CD80ED14FEAD07CB2F17F4F0CEB4C0C66
:103260000CF1020C08BF4CEBD17C04E04FF0080CD1
:1032700001E04FEAD17C0CEB4C0324FA03F404F098
:103280000704B4F1040C06D20EEB840CBDE8104028
:103290004CF0010C6047DFE80CF0070802024FF029
:1032A0000040A0F5800010BD0846420018BFD2F1D2
:1032B000807288BF00F0004010BD4FF04070E1EE1A
:1032C000100A704700000000000000000102030423
:1032D00006070809010000014000000080010020ED
:1032E0008005002000060020000000000000000013
:1032F0004FBB610567ACDD3F182D4454FB21E93F0E
:103300009BF681D20B73EF3F182D4454FB21F93FFC
:10331000E2652F227F2B7A3C075C143326A6813C82
:10332000BDCBF07A8807703C075C143326A6913C2D
:10333000C4EB98999999C9BF711623FEC671BCBF99
:103340006D9A74AFF2B0B3BF9AFDDE522DDEADBF01
:103350002F6C6A2C44B4A2BF0D5555555555D53F19
:10336000FF8300922449C23F6E204CC5CD45B73F34
:10337000513DD0A0660DB13FEB0D76244B7BA93FAC
:1033800011DA22E33AAD903F4C5555555555A53FBE
:103390007751C1166CC156BF9015CB19A001FA3EEA
:1033A000AD529C804F7E92BEC4B1B4BD9EEE213E14
:1033B000D43888BEE9FAA8BD00004054FB21F93F8B
:1033C0003163621A61B4D03D0000601A61B4D03D2F
:1033D0007370032E8A19A33B0000002E8A19A33BA9
:1033E000C14920259A837B390000000000000000BD
:1033F0006E83F9A22915444ED15727FCC0DD34F560
:10340000999562DB4190433CAB6351FE61C5BBDEE5
:103410003A6E24B7E0D24D42EA2E49061C92D109F9
:103420001CEB1DFE3EA729B1F53582E88444BB2E76
:1034300026709CE9417E5FB439D69139F4395383C3
:103440008B5F849C3B28F9BDFF97F81F0F9805DE22
:103450008B112FEF1F6D0A5ACF7E366DB709CB2720
:10346000663F464F2DEA5F9EC7BA27757BF1E5EBB5
:10347000F739073DEA92528AB15FFB6B085D8D1FF9
:10348000A6F810111111813FD561C119A0012ABF01
:103490007DFEB157E31DC73EEB9C2B8AE6E55ABE85
:1034A0007CD5CF5A3AD9E53DC83400080000002049
:1034B00088000000E801000850350008880000205E
:1034C000A00B000004020008000000000000000043
:1034D00000000000000000000000000001000000EB
:1034E00010000000000000000024F40000000000B4
:1034F00000000000000000000000000000000000CC
:1035000000000000000000000000000000000000BB
:1035100000000000000000000000000000000000AB
:10352000000000000000000000000000000000009B
:10353000000000000000F03F00000000000000005C
:103540000000000000000000000000000000F03F4C
:04000005080001AD41
:00000001FF
